{"abi":[{"type":"constructor","inputs":[{"name":"_paymentToken","type":"address","internalType":"address"},{"name":"_pythOracle","type":"address","internalType":"address"}],"stateMutability":"nonpayable"},{"type":"function","name":"FEE_PERCENTAGE","inputs":[],"outputs":[{"name":"","type":"uint256","internalType":"uint256"}],"stateMutability":"view"},{"type":"function","name":"buyShares","inputs":[{"name":"_marketId","type":"uint256","internalType":"uint256"},{"name":"_isYes","type":"bool","internalType":"bool"},{"name":"_amount","type":"uint256","internalType":"uint256"}],"outputs":[],"stateMutability":"nonpayable"},{"type":"function","name":"claimRewards","inputs":[{"name":"_marketId","type":"uint256","internalType":"uint256"}],"outputs":[],"stateMutability":"nonpayable"},{"type":"function","name":"createMarket","inputs":[{"name":"_cryptoPair","type":"string","internalType":"string"},{"name":"_strikePrice","type":"uint256","internalType":"uint256"},{"name":"_endTime","type":"uint256","internalType":"uint256"},{"name":"_resolutionTime","type":"uint256","internalType":"uint256"},{"name":"_pythPriceId","type":"bytes32","internalType":"bytes32"}],"outputs":[],"stateMutability":"nonpayable"},{"type":"function","name":"getAllMarkets","inputs":[],"outputs":[{"name":"","type":"tuple[]","internalType":"struct CryptoPredictionsMarket.Market[]","components":[{"name":"id","type":"uint256","internalType":"uint256"},{"name":"cryptoPair","type":"string","internalType":"string"},{"name":"strikePrice","type":"uint256","internalType":"uint256"},{"name":"endTime","type":"uint256","internalType":"uint256"},{"name":"resolutionTime","type":"uint256","internalType":"uint256"},{"name":"pythPriceId","type":"bytes32","internalType":"bytes32"},{"name":"totalYesShares","type":"uint256","internalType":"uint256"},{"name":"totalNoShares","type":"uint256","internalType":"uint256"},{"name":"resolved","type":"bool","internalType":"bool"},{"name":"outcome","type":"bool","internalType":"bool"}]}],"stateMutability":"view"},{"type":"function","name":"getMarketDetails","inputs":[{"name":"_marketId","type":"uint256","internalType":"uint256"}],"outputs":[{"name":"cryptoPair","type":"string","internalType":"string"},{"name":"strikePrice","type":"uint256","internalType":"uint256"},{"name":"endTime","type":"uint256","internalType":"uint256"},{"name":"resolutionTime","type":"uint256","internalType":"uint256"},{"name":"totalYesShares","type":"uint256","internalType":"uint256"},{"name":"totalNoShares","type":"uint256","internalType":"uint256"},{"name":"resolved","type":"bool","internalType":"bool"},{"name":"outcome","type":"bool","internalType":"bool"}],"stateMutability":"view"},{"type":"function","name":"getUserPosition","inputs":[{"name":"_marketId","type":"uint256","internalType":"uint256"},{"name":"_user","type":"address","internalType":"address"}],"outputs":[{"name":"yesShares","type":"uint256","internalType":"uint256"},{"name":"noShares","type":"uint256","internalType":"uint256"}],"stateMutability":"view"},{"type":"function","name":"marketCount","inputs":[],"outputs":[{"name":"","type":"uint256","internalType":"uint256"}],"stateMutability":"view"},{"type":"function","name":"markets","inputs":[{"name":"","type":"uint256","internalType":"uint256"}],"outputs":[{"name":"id","type":"uint256","internalType":"uint256"},{"name":"cryptoPair","type":"string","internalType":"string"},{"name":"strikePrice","type":"uint256","internalType":"uint256"},{"name":"endTime","type":"uint256","internalType":"uint256"},{"name":"resolutionTime","type":"uint256","internalType":"uint256"},{"name":"pythPriceId","type":"bytes32","internalType":"bytes32"},{"name":"totalYesShares","type":"uint256","internalType":"uint256"},{"name":"totalNoShares","type":"uint256","internalType":"uint256"},{"name":"resolved","type":"bool","internalType":"bool"},{"name":"outcome","type":"bool","internalType":"bool"}],"stateMutability":"view"},{"type":"function","name":"paymentToken","inputs":[],"outputs":[{"name":"","type":"address","internalType":"contract IERC20"}],"stateMutability":"view"},{"type":"function","name":"pythOracle","inputs":[],"outputs":[{"name":"","type":"address","internalType":"contract IPyth"}],"stateMutability":"view"},{"type":"function","name":"resolveMarket","inputs":[{"name":"_marketId","type":"uint256","internalType":"uint256"},{"name":"_pythUpdateData","type":"bytes[]","internalType":"bytes[]"}],"outputs":[],"stateMutability":"payable"},{"type":"function","name":"sellShares","inputs":[{"name":"_marketId","type":"uint256","internalType":"uint256"},{"name":"_isYes","type":"bool","internalType":"bool"},{"name":"_amount","type":"uint256","internalType":"uint256"}],"outputs":[],"stateMutability":"nonpayable"},{"type":"function","name":"userPositions","inputs":[{"name":"","type":"uint256","internalType":"uint256"},{"name":"","type":"address","internalType":"address"}],"outputs":[{"name":"yesShares","type":"uint256","internalType":"uint256"},{"name":"noShares","type":"uint256","internalType":"uint256"}],"stateMutability":"view"},{"type":"event","name":"MarketCreated","inputs":[{"name":"marketId","type":"uint256","indexed":true,"internalType":"uint256"},{"name":"cryptoPair","type":"string","indexed":false,"internalType":"string"},{"name":"strikePrice","type":"uint256","indexed":false,"internalType":"uint256"},{"name":"endTime","type":"uint256","indexed":false,"internalType":"uint256"},{"name":"resolutionTime","type":"uint256","indexed":false,"internalType":"uint256"}],"anonymous":false},{"type":"event","name":"MarketResolved","inputs":[{"name":"marketId","type":"uint256","indexed":true,"internalType":"uint256"},{"name":"outcome","type":"bool","indexed":false,"internalType":"bool"},{"name":"resolutionPrice","type":"uint256","indexed":false,"internalType":"uint256"}],"anonymous":false},{"type":"event","name":"RewardsClaimed","inputs":[{"name":"marketId","type":"uint256","indexed":true,"internalType":"uint256"},{"name":"user","type":"address","indexed":true,"internalType":"address"},{"name":"amount","type":"uint256","indexed":false,"internalType":"uint256"}],"anonymous":false},{"type":"event","name":"SharesBought","inputs":[{"name":"marketId","type":"uint256","indexed":true,"internalType":"uint256"},{"name":"buyer","type":"address","indexed":true,"internalType":"address"},{"name":"isYes","type":"bool","indexed":false,"internalType":"bool"},{"name":"amount","type":"uint256","indexed":false,"internalType":"uint256"}],"anonymous":false},{"type":"event","name":"SharesSold","inputs":[{"name":"marketId","type":"uint256","indexed":true,"internalType":"uint256"},{"name":"seller","type":"address","indexed":true,"internalType":"address"},{"name":"isYes","type":"bool","indexed":false,"internalType":"bool"},{"name":"amount","type":"uint256","indexed":false,"internalType":"uint256"}],"anonymous":false},{"type":"error","name":"ReentrancyGuardReentrantCall","inputs":[]},{"type":"error","name":"SafeERC20FailedOperation","inputs":[{"name":"token","type":"address","internalType":"address"}]}],"bytecode":{"object":"0x60806040523480156200001157600080fd5b5060405162001d3138038062001d31833981016040819052620000349162000088565b6001600081905580546001600160a01b039384166001600160a01b03199182161790915560028054929093169116179055620000c0565b80516001600160a01b03811681146200008357600080fd5b919050565b600080604083850312156200009c57600080fd5b620000a7836200006b565b9150620000b7602084016200006b565b90509250929050565b611c6180620000d06000396000f3fe6080604052600436106100dc5760003560e01c806392a8db3f1161007f578063b1283e7711610059578063b1283e77146102ab578063cd9c30bb146102e1578063ec97908214610301578063f5d6ac901461031757600080fd5b806392a8db3f14610242578063b06c1ba314610255578063b0772d0b1461028957600080fd5b80633013ce29116100bb5780633013ce291461014b57806339b4637214610183578063869da9db146101a35780638ae907f01461020357600080fd5b80620b46f8146100e15780630962ef79146101095780632ae3b49f1461012b575b600080fd5b3480156100ed57600080fd5b506100f6600181565b6040519081526020015b60405180910390f35b34801561011557600080fd5b5061012961012436600461136f565b610337565b005b34801561013757600080fd5b506101296101463660046113cf565b6104e6565b34801561015757600080fd5b5060015461016b906001600160a01b031681565b6040516001600160a01b039091168152602001610100565b34801561018f57600080fd5b5061012961019e366004611484565b610736565b3480156101af57600080fd5b506101ee6101be3660046114c1565b60009182526005602090815260408084206001600160a01b03939093168452919052902080546001909101549091565b60408051928352602083019190915201610100565b34801561020f57600080fd5b506101ee61021e3660046114c1565b60056020908152600092835260408084209091529082529020805460019091015482565b6101296102503660046114fd565b610928565b34801561026157600080fd5b5061027561027036600461136f565b610bc4565b6040516101009897969594939291906115c2565b34801561029557600080fd5b5061029e610cd0565b6040516101009190611611565b3480156102b757600080fd5b506102cb6102c636600461136f565b610ee1565b6040516101009a999897969594939291906116e1565b3480156102ed57600080fd5b506101296102fc366004611484565b610fbe565b34801561030d57600080fd5b506100f660035481565b34801561032357600080fd5b5060025461016b906001600160a01b031681565b61033f611236565b6000818152600460205260409020600881015460ff166103a65760405162461bcd60e51b815260206004820152601760248201527f4d61726b6574206e6f74207265736f6c7665642079657400000000000000000060448201526064015b60405180910390fd5b600082815260056020908152604080832033845290915281206008830154909190610100900460ff161561040557600683015460078401546103e89082611757565b83546103f49190611770565b6103fe9190611787565b9050610436565b6007830154600684015461041a908290611757565b83600101546104299190611770565b6104339190611787565b90505b6000811161047c5760405162461bcd60e51b81526020600482015260136024820152724e6f207265776172647320746f20636c61696d60681b604482015260640161039d565b60008083556001808401919091555461049f906001600160a01b03163383611260565b604051818152339085907f3300bdb359cfb956935bca32e9db727413eab1ca84341f2e36caea85bb7969689060200160405180910390a35050506104e36001600055565b50565b4283116105355760405162461bcd60e51b815260206004820152601e60248201527f456e642074696d65206d75737420626520696e20746865206675747572650000604482015260640161039d565b8282116105935760405162461bcd60e51b815260206004820152602660248201527f5265736f6c7574696f6e2074696d65206d75737420626520616674657220656e604482015265642074696d6560d01b606482015260840161039d565b600084116105ef5760405162461bcd60e51b815260206004820152602360248201527f537472696b65207072696365206d75737420626520677265617465722074686160448201526206e20360ec1b606482015260840161039d565b600380549060006105ff836117a9565b909155505060408051610140810182526003548082526020808301898152838501899052606084018890526080840187905260a08401869052600060c0850181905260e08501819052610100850181905261012085018190529283526004909152929020815181559151909190600182019061067b9082611846565b50604082810151600283015560608301516003808401919091556080840151600484015560a0840151600584015560c0840151600684015560e0840151600784015561010080850151600890940180546101209096015161ffff1990961694151561ff001916949094179415150293909317909155905490517f76e4f7547f65d724459a9d5e9c22f475d043d441fe6b65bb4b4f007e5902e5f990610727908890889088908890611906565b60405180910390a25050505050565b61073e611236565b6000838152600460205260409020600381015442106107925760405162461bcd60e51b815260206004820152601060248201526f13585c9ad95d081a185cc8195b99195960821b604482015260640161039d565b600881015460ff16156107b75760405162461bcd60e51b815260040161039d90611935565b600082116108075760405162461bcd60e51b815260206004820152601d60248201527f416d6f756e74206d7573742062652067726561746572207468616e2030000000604482015260640161039d565b60006064610816600185611770565b6108209190611787565b9050600061082e828561196c565b600154909150610849906001600160a01b03163330876112bf565b6000868152600560209081526040808320338452909152902085156108a0578184600601600082825461087c9190611757565b9091555050805482908290600090610895908490611757565b909155506108d59050565b818460070160008282546108b49190611757565b92505081905550818160010160008282546108cf9190611757565b90915550505b60408051871515815260208101849052339189917f3b8280c0b373e7d170b71b3cf420502d1edb6340a000ece87a2594c3db2ace8091015b60405180910390a3505050506109236001600055565b505050565b6000838152600460208190526040909120908101544210156109835760405162461bcd60e51b8152602060048201526014602482015273546f6f206561726c7920746f207265736f6c766560601b604482015260640161039d565b600881015460ff16156109a85760405162461bcd60e51b815260040161039d90611935565b60025460405163d47eed4560e01b81526000916001600160a01b03169063d47eed45906109db90879087906004016119a8565b602060405180830381865afa1580156109f8573d6000803e3d6000fd5b505050506040513d601f19601f82011682018060405250810190610a1c9190611a44565b600254604051631df3cbc560e31b81529192506001600160a01b03169063ef9e5e28908390610a5190889088906004016119a8565b6000604051808303818588803b158015610a6a57600080fd5b505af1158015610a7e573d6000803e3d6000fd5b505060025460058601546040516331d98b3f60e01b8152600095506001600160a01b0390921693506331d98b3f9250610abd9160040190815260200190565b608060405180830381865afa158015610ada573d6000803e3d6000fd5b505050506040513d601f19601f82011682018060405250810190610afe9190611a5d565b905060008160400151600019610b149190611af4565b610b1f90600a611bff565b8251610b3d9067ffffffffffffffff16670de0b6b3a7640000611770565b610b479190611787565b600285015460088601805460ff196101009385101584021661ffff19909116176001179081905560405192935089927f6d4d544f5a6dcf38d77a232d3ef7358625c74877a1ad954fcb507872e7a05eaf92610bb3920460ff169085909115158252602082015260400190565b60405180910390a250505050505050565b6060600080600080600080600080600460008b8152602001908152602001600020905080600101816002015482600301548360040154846006015485600701548660080160009054906101000a900460ff168760080160019054906101000a900460ff16878054610c34906117c2565b80601f0160208091040260200160405190810160405280929190818152602001828054610c60906117c2565b8015610cad5780601f10610c8257610100808354040283529160200191610cad565b820191906000526020600020905b815481529060010190602001808311610c9057829003601f168201915b505050505097509850985098509850985098509850985050919395975091939597565b6060600060035467ffffffffffffffff811115610cef57610cef611388565b604051908082528060200260200182016040528015610d7d57816020015b610d6a60405180610140016040528060008152602001606081526020016000815260200160008152602001600081526020016000801916815260200160008152602001600081526020016000151581526020016000151581525090565b815260200190600190039081610d0d5790505b50905060015b6003548111610edb57600460008281526020019081526020016000206040518061014001604052908160008201548152602001600182018054610dc5906117c2565b80601f0160208091040260200160405190810160405280929190818152602001828054610df1906117c2565b8015610e3e5780601f10610e1357610100808354040283529160200191610e3e565b820191906000526020600020905b815481529060010190602001808311610e2157829003601f168201915b505050918352505060028201546020820152600382015460408201526004820154606082015260058201546080820152600682015460a0820152600782015460c082015260089091015460ff808216151560e08401526101009182900416151591015282610ead60018461196c565b81518110610ebd57610ebd611c15565b60200260200101819052508080610ed3906117a9565b915050610d83565b50919050565b60046020526000908152604090208054600182018054919291610f03906117c2565b80601f0160208091040260200160405190810160405280929190818152602001828054610f2f906117c2565b8015610f7c5780601f10610f5157610100808354040283529160200191610f7c565b820191906000526020600020905b815481529060010190602001808311610f5f57829003601f168201915b50505050600283015460038401546004850154600586015460068701546007880154600890980154969794969395509193909260ff808216916101009004168a565b610fc6611236565b60008381526004602052604090206003810154421061101a5760405162461bcd60e51b815260206004820152601060248201526f13585c9ad95d081a185cc8195b99195960821b604482015260640161039d565b600881015460ff161561103f5760405162461bcd60e51b815260040161039d90611935565b6000821161108f5760405162461bcd60e51b815260206004820152601d60248201527f416d6f756e74206d7573742062652067726561746572207468616e2030000000604482015260640161039d565b6000848152600560209081526040808320338452909152902083156111375780548311156110ff5760405162461bcd60e51b815260206004820152601760248201527f496e73756666696369656e742059657320736861726573000000000000000000604482015260640161039d565b82826006016000828254611113919061196c565b909155505080548390829060009061112c90849061196c565b909155506111b99050565b82816001015410156111845760405162461bcd60e51b8152602060048201526016602482015275496e73756666696369656e74204e6f2073686172657360501b604482015260640161039d565b82826007016000828254611198919061196c565b92505081905550828160010160008282546111b3919061196c565b90915550505b600060646111c8600186611770565b6111d29190611787565b905060006111e0828661196c565b6001549091506111fa906001600160a01b03163383611260565b60408051871515815260208101879052339189917f3ca5714156ea83ec7410443193afc9c14a18f0d6704d9b2fe76c6a2ca170c64a910161090d565b60026000540361125957604051633ee5aeb560e01b815260040160405180910390fd5b6002600055565b6040516001600160a01b0383811660248301526044820183905261092391859182169063a9059cbb906064015b604051602081830303815290604052915060e01b6020820180516001600160e01b0383818316178352505050506112fe565b6040516001600160a01b0384811660248301528381166044830152606482018390526112f89186918216906323b872dd9060840161128d565b50505050565b600080602060008451602086016000885af180611321576040513d6000823e3d81fd5b50506000513d91508115611339578060011415611346565b6001600160a01b0384163b155b156112f857604051635274afe760e01b81526001600160a01b038516600482015260240161039d565b60006020828403121561138157600080fd5b5035919050565b634e487b7160e01b600052604160045260246000fd5b604051601f8201601f1916810167ffffffffffffffff811182821017156113c7576113c7611388565b604052919050565b600080600080600060a086880312156113e757600080fd5b853567ffffffffffffffff808211156113ff57600080fd5b818801915088601f83011261141357600080fd5b813560208282111561142757611427611388565b611439601f8301601f1916820161139e565b92508183528a8183860101111561144f57600080fd5b818185018285013760009183018101919091529099908801359850604088013597606081013597506080013595509350505050565b60008060006060848603121561149957600080fd5b83359250602084013580151581146114b057600080fd5b929592945050506040919091013590565b600080604083850312156114d457600080fd5b8235915060208301356001600160a01b03811681146114f257600080fd5b809150509250929050565b60008060006040848603121561151257600080fd5b83359250602084013567ffffffffffffffff8082111561153157600080fd5b818601915086601f83011261154557600080fd5b81358181111561155457600080fd5b8760208260051b850101111561156957600080fd5b6020830194508093505050509250925092565b6000815180845260005b818110156115a257602081850181015186830182015201611586565b506000602082860101526020601f19601f83011685010191505092915050565b60006101008083526115d68184018c61157c565b602084019a909a52505060408101969096526060860194909452608085019290925260a0840152151560c0830152151560e090910152919050565b600060208083018184528085518083526040925060408601915060408160051b87010184880160005b838110156116d357603f1989840301855281516101408151855288820151818a8701526116698287018261157c565b838a0151878b0152606080850151908801526080808501519088015260a0808501519088015260c0808501519088015260e080850151908801526101008085015115159088015261012093840151151593909601929092525050938601939086019060010161163a565b509098975050505050505050565b60006101408c83528060208401526116fb8184018d61157c565b604084019b909b5250506060810197909752608087019590955260a086019390935260c085019190915260e0840152151561010083015215156101209091015292915050565b634e487b7160e01b600052601160045260246000fd5b8082018082111561176a5761176a611741565b92915050565b808202811582820484141761176a5761176a611741565b6000826117a457634e487b7160e01b600052601260045260246000fd5b500490565b6000600182016117bb576117bb611741565b5060010190565b600181811c908216806117d657607f821691505b602082108103610edb57634e487b7160e01b600052602260045260246000fd5b601f821115610923576000816000526020600020601f850160051c8101602086101561181f5750805b601f850160051c820191505b8181101561183e5782815560010161182b565b505050505050565b815167ffffffffffffffff81111561186057611860611388565b6118748161186e84546117c2565b846117f6565b602080601f8311600181146118a957600084156118915750858301515b600019600386901b1c1916600185901b17855561183e565b600085815260208120601f198616915b828110156118d8578886015182559484019460019091019084016118b9565b50858210156118f65787850151600019600388901b60f8161c191681555b5050505050600190811b01905550565b608081526000611919608083018761157c565b6020830195909552506040810192909252606090910152919050565b60208082526017908201527f4d61726b657420616c7265616479207265736f6c766564000000000000000000604082015260600190565b8181038181111561176a5761176a611741565b81835281816020850137506000828201602090810191909152601f909101601f19169091010190565b60208082528181018390526000906040600585901b8401810190840186845b87811015611a3757868403603f190183528135368a9003601e190181126119ed57600080fd5b8901858101903567ffffffffffffffff811115611a0957600080fd5b803603821315611a1857600080fd5b611a2386828461197f565b9550505091840191908401906001016119c7565b5091979650505050505050565b600060208284031215611a5657600080fd5b5051919050565b600060808284031215611a6f57600080fd5b6040516080810167ffffffffffffffff8282108183111715611a9357611a93611388565b81604052845191508160070b8214611aaa57600080fd5b9082526020840151908082168214611ac157600080fd5b5060208201526040830151600381900b8114611adc57600080fd5b60408201526060928301519281019290925250919050565b60008260030b8260030b028060030b9150808214611b1457611b14611741565b5092915050565b600181815b80851115611b56578160001904821115611b3c57611b3c611741565b80851615611b4957918102915b93841c9390800290611b20565b509250929050565b600082611b6d5750600161176a565b81611b7a5750600061176a565b8160018114611b905760028114611b9a57611bb6565b600191505061176a565b60ff841115611bab57611bab611741565b50506001821b61176a565b5060208310610133831016604e8410600b8410161715611bd9575081810a61176a565b611be38383611b1b565b8060001904821115611bf757611bf7611741565b029392505050565b6000611c0e60ff841683611b5e565b9392505050565b634e487b7160e01b600052603260045260246000fdfea26469706673582212206b3590eea55707ff7d0e7b69c55b8b6f30511c53b94f0b8dfd8b991158e6230464736f6c63430008180033","linkReferences":{}},"methodIdentifiers":{"FEE_PERCENTAGE()":"000b46f8","buyShares(uint256,bool,uint256)":"39b46372","claimRewards(uint256)":"0962ef79","createMarket(string,uint256,uint256,uint256,bytes32)":"2ae3b49f","getAllMarkets()":"b0772d0b","getMarketDetails(uint256)":"b06c1ba3","getUserPosition(uint256,address)":"869da9db","marketCount()":"ec979082","markets(uint256)":"b1283e77","paymentToken()":"3013ce29","pythOracle()":"f5d6ac90","resolveMarket(uint256,bytes[])":"92a8db3f","sellShares(uint256,bool,uint256)":"cd9c30bb","userPositions(uint256,address)":"8ae907f0"},"id":41}