{"abi":[{"type":"constructor","inputs":[],"stateMutability":"nonpayable"},{"type":"receive","stateMutability":"payable"},{"type":"function","name":"UserToId","inputs":[{"name":"","type":"address","internalType":"address"},{"name":"id","type":"uint256","internalType":"uint256"}],"outputs":[{"name":"optionId","type":"uint256","internalType":"uint256"}],"stateMutability":"view"},{"type":"function","name":"UserToPlayed","inputs":[{"name":"","type":"address","internalType":"address"},{"name":"id","type":"uint256","internalType":"uint256"}],"outputs":[{"name":"","type":"bool","internalType":"bool"}],"stateMutability":"view"},{"type":"function","name":"UserToWinning","inputs":[{"name":"","type":"address","internalType":"address"},{"name":"id","type":"uint256","internalType":"uint256"}],"outputs":[{"name":"","type":"bool","internalType":"bool"}],"stateMutability":"view"},{"type":"function","name":"betAmount","inputs":[],"outputs":[{"name":"","type":"uint256","internalType":"uint256"}],"stateMutability":"view"},{"type":"function","name":"getBalance","inputs":[{"name":"user","type":"address","internalType":"address"}],"outputs":[{"name":"","type":"uint256","internalType":"uint256"}],"stateMutability":"view"},{"type":"function","name":"getOptions","inputs":[{"name":"id","type":"uint256","internalType":"uint256"}],"outputs":[{"name":"","type":"string[]","internalType":"string[]"}],"stateMutability":"view"},{"type":"function","name":"getQuestions","inputs":[],"outputs":[{"name":"","type":"tuple[]","internalType":"struct DecentralizedBetting.BetProject[]","components":[{"name":"project","type":"string","internalType":"string"},{"name":"evalId","type":"uint256","internalType":"uint256"},{"name":"deadline","type":"uint256","internalType":"uint256"}]}],"stateMutability":"view"},{"type":"function","name":"owner","inputs":[],"outputs":[{"name":"","type":"address","internalType":"address"}],"stateMutability":"view"},{"type":"function","name":"placeBet","inputs":[{"name":"id","type":"uint256","internalType":"uint256"},{"name":"optionId","type":"uint256","internalType":"uint256"}],"outputs":[],"stateMutability":"payable"},{"type":"function","name":"runBet","inputs":[{"name":"id","type":"uint256","internalType":"uint256"}],"outputs":[],"stateMutability":"nonpayable"},{"type":"function","name":"setOptions","inputs":[{"name":"id","type":"uint256","internalType":"uint256"},{"name":"options","type":"string[]","internalType":"string[]"}],"outputs":[],"stateMutability":"nonpayable"},{"type":"function","name":"setQuestion","inputs":[{"name":"project","type":"string","internalType":"string"},{"name":"deadline","type":"uint256","internalType":"uint256"}],"outputs":[],"stateMutability":"nonpayable"},{"type":"function","name":"sharkSetAnswer","inputs":[{"name":"id","type":"uint256","internalType":"uint256"},{"name":"optionId","type":"uint256","internalType":"uint256"}],"outputs":[],"stateMutability":"nonpayable"},{"type":"function","name":"withdrawFunds","inputs":[],"outputs":[],"stateMutability":"nonpayable"},{"type":"function","name":"withdrawWin","inputs":[{"name":"id","type":"uint256","internalType":"uint256"}],"outputs":[],"stateMutability":"nonpayable"},{"type":"event","name":"Answer","inputs":[{"name":"evalId","type":"uint256","indexed":true,"internalType":"uint256"},{"name":"optionId","type":"uint256","indexed":false,"internalType":"uint256"}],"anonymous":false},{"type":"event","name":"BetPlaced","inputs":[{"name":"user","type":"address","indexed":true,"internalType":"address"},{"name":"evalId","type":"uint256","indexed":false,"internalType":"uint256"},{"name":"optionId","type":"uint256","indexed":false,"internalType":"uint256"}],"anonymous":false},{"type":"event","name":"EvaluationCreated","inputs":[{"name":"evalId","type":"uint256","indexed":true,"internalType":"uint256"},{"name":"project","type":"string","indexed":false,"internalType":"string"}],"anonymous":false},{"type":"event","name":"OptionCreated","inputs":[{"name":"evalId","type":"uint256","indexed":true,"internalType":"uint256"},{"name":"options","type":"string[]","indexed":false,"internalType":"string[]"}],"anonymous":false}],"bytecode":{"object":"0x60806040526001600b5567016345785d8a0000600c5534801561002157600080fd5b50600d80546001600160a01b0319163317905561149f806100436000396000f3fe6080604052600436106100ec5760003560e01c806397221ab71161008a578063e20ae73911610059578063e20ae7391461029d578063f0dbeafe146102d5578063f8b2cb4f14610310578063fb7c72e51461033857600080fd5b806397221ab714610217578063b955ccbc14610239578063c80b374514610259578063d24257c01461027957600080fd5b80634afe62b5116100c65780634afe62b51461017f578063838617ff146101925780638915b3fb146101b25780638da5cb5b146101df57600080fd5b80631438d2c9146100f857806324600fc31461011a57806340f051071461012f57600080fd5b366100f357005b600080fd5b34801561010457600080fd5b50610118610113366004610e8c565b610358565b005b34801561012657600080fd5b50610118610510565b34801561013b57600080fd5b5061016a61014a366004610ec1565b600760209081526000928352604080842090915290825290205460ff1681565b60405190151581526020015b60405180910390f35b61011861018d366004610eeb565b6105fc565b34801561019e57600080fd5b506101186101ad366004610eeb565b6107d4565b3480156101be57600080fd5b506101d26101cd366004610e8c565b61082b565b6040516101769190610f53565b3480156101eb57600080fd5b50600d546101ff906001600160a01b031681565b6040516001600160a01b039091168152602001610176565b34801561022357600080fd5b5061022c610917565b6040516101769190610fb7565b34801561024557600080fd5b5061011861025436600461103a565b610aab565b34801561026557600080fd5b50610118610274366004610e8c565b610bd9565b34801561028557600080fd5b5061028f600c5481565b604051908152602001610176565b3480156102a957600080fd5b5061028f6102b8366004610ec1565b600660209081526000928352604080842090915290825290205481565b3480156102e157600080fd5b5061016a6102f0366004610ec1565b600a60209081526000928352604080842090915290825290205460ff1681565b34801561031c57600080fd5b5061028f61032b3660046110b2565b6001600160a01b03163190565b34801561034457600080fd5b5061011861035336600461111b565b610cbc565b600d546001600160a01b0316331461038b5760405162461bcd60e51b815260040161038290611240565b60405180910390fd5b6000818152602081905260409020600201544210156103e35760405162461bcd60e51b8152602060048201526014602482015273426574206973207374696c6c204f6e676f696e6760601b6044820152606401610382565b60005b6000828152600860205260409020548110156104ed576000828152600860205260408120805460069291908490811061042157610421611263565b60009182526020808320909101546001600160a01b03168352828101939093526040918201812085825283528181205460039093522054036104e55760016007600060086000868152602001908152602001600020848154811061048757610487611263565b6000918252602080832091909101546001600160a01b0316835282810193909352604091820181208682528352818120805460ff191694151594909417909355600990915281208054600192906104df90849061128f565b90915550505b6001016103e6565b5050600b546000908152600160208190526040909120805460ff19169091179055565b600d546001600160a01b0316331461056a5760405162461bcd60e51b815260206004820152601d60248201527f4f6e6c79206f776e65722063616e2077697468647261772066756e64730000006044820152606401610382565b604051600090339047908381818185875af1925050503d80600081146105ac576040519150601f19603f3d011682016040523d82523d6000602084013e6105b1565b606091505b50509050806105f95760405162461bcd60e51b81526020600482015260146024820152732330b4b632b2103a379039b2b7321022ba3432b960611b6044820152606401610382565b50565b600c5434146106445760405162461bcd60e51b81526020600482015260146024820152730b2deea40daeae6e840c4cae840605c62408aa8960631b6044820152606401610382565b6000828152602081905260409020600201544211156106a55760405162461bcd60e51b815260206004820152601760248201527f42657420646561646c696e6520686173207061737365640000000000000000006044820152606401610382565b336000908152600a6020908152604080832085845290915290205460ff16156107105760405162461bcd60e51b815260206004820181905260248201527f596f75206861766520616c726561647920706c616365642074686973206265746044820152606401610382565b33600081815260066020908152604080832086845282528083208590556008825280832080546001810182559084528284200180546001600160a01b03191690941790935584825260059052908120805434929061076f90849061128f565b9091555050336000818152600a60209081526040808320868452825291829020805460ff1916600117905581518581529081018490527e1ecf1d0c4d22f324b3ecb9cdf0e5f772bc74ac104e6626f4b3845433d0310591015b60405180910390a25050565b60008281526003602090815260408083208490556004825291829020805460ff19166001179055600b5491518381527f01fad17dd00d495cf994122641cce2b8f45e397677e6d94777d4d68cb628405391016107c8565b606060026000838152602001908152602001600020805480602002602001604051908101604052809291908181526020016000905b8282101561090c57838290600052602060002001805461087f906112a8565b80601f01602080910402602001604051908101604052809291908181526020018280546108ab906112a8565b80156108f85780601f106108cd576101008083540402835291602001916108f8565b820191906000526020600020905b8154815290600101906020018083116108db57829003601f168201915b505050505081526020019060010190610860565b505050509050919050565b606060006001600b5461092a91906112dc565b67ffffffffffffffff811115610942576109426110d4565b60405190808252806020026020018201604052801561099757816020015b61098460405180606001604052806060815260200160008152602001600081525090565b8152602001906001900390816109605790505b50905060005b6001600b546109ac91906112dc565b811015610aa5576000806109c183600161128f565b81526020019081526020016000206040518060600160405290816000820180546109ea906112a8565b80601f0160208091040260200160405190810160405280929190818152602001828054610a16906112a8565b8015610a635780601f10610a3857610100808354040283529160200191610a63565b820191906000526020600020905b815481529060010190602001808311610a4657829003601f168201915b5050505050815260200160018201548152602001600282015481525050828281518110610a9257610a92611263565b602090810291909101015260010161099d565b50919050565b600d546001600160a01b03163314610ad55760405162461bcd60e51b815260040161038290611240565b80421115610ae257600080fd5b604051806060016040528084848080601f01602080910402602001604051908101604052809392919081815260200183838082843760009201829052509385525050600b5460208085018290526040948501879052908352829052502081518190610b4d908261133f565b50602082810151600183810191909155604093840151600290930192909255600b805460009081529290915290829020805460ff191690555490517fc460c3e954ac216b4f1fe4e54adbbc423a4be875974e760cf868989066f44e1990610bb790869086906113ff565b60405180910390a2600b8054906000610bcf8361142e565b9190505550505050565b6000818152600960209081526040808320546005909252822054610bfd9190611447565b33600090815260076020908152604080832086845290915290205490915060ff161515600103610cb857604051600090339083908381818185875af1925050503d8060008114610c69576040519150601f19603f3d011682016040523d82523d6000602084013e610c6e565b606091505b5050905080610cb65760405162461bcd60e51b81526020600482015260146024820152732330b4b632b2103a379039b2b7321022ba3432b960611b6044820152606401610382565b505b5050565b600d546001600160a01b03163314610ce65760405162461bcd60e51b815260040161038290611240565b600281511115610cf557600080fd5b60408051600280825260608201909252600091816020015b6060815260200190600190039081610d0d57905050905060005b8251811015610d6f57828181518110610d4257610d42611263565b6020026020010151828281518110610d5c57610d5c611263565b6020908102919091010152600101610d27565b5060008381526002602090815260409091208251610d8f92840190610dcf565b50600b547f77d59977192c28243cb450ff009cda98d472ae226f7252e306406ff9310cfcae83604051610dc29190610f53565b60405180910390a2505050565b828054828255906000526020600020908101928215610e15579160200282015b82811115610e155782518290610e05908261133f565b5091602001919060010190610def565b50610e21929150610e25565b5090565b80821115610e21576000610e398282610e42565b50600101610e25565b508054610e4e906112a8565b6000825580601f10610e5e575050565b601f0160209004906000526020600020908101906105f991905b80821115610e215760008155600101610e78565b600060208284031215610e9e57600080fd5b5035919050565b80356001600160a01b0381168114610ebc57600080fd5b919050565b60008060408385031215610ed457600080fd5b610edd83610ea5565b946020939093013593505050565b60008060408385031215610efe57600080fd5b50508035926020909101359150565b6000815180845260005b81811015610f3357602081850181015186830182015201610f17565b506000602082860101526020601f19601f83011685010191505092915050565b600060208083016020845280855180835260408601915060408160051b87010192506020870160005b82811015610faa57603f19888603018452610f98858351610f0d565b94509285019290850190600101610f7c565b5092979650505050505050565b600060208083018184528085518083526040925060408601915060408160051b87010184880160005b8381101561102c57603f1989840301855281516060815181865261100682870182610f0d565b838b0151878c015292890151958901959095525094870194925090860190600101610fe0565b509098975050505050505050565b60008060006040848603121561104f57600080fd5b833567ffffffffffffffff8082111561106757600080fd5b818601915086601f83011261107b57600080fd5b81358181111561108a57600080fd5b87602082850101111561109c57600080fd5b6020928301989097509590910135949350505050565b6000602082840312156110c457600080fd5b6110cd82610ea5565b9392505050565b634e487b7160e01b600052604160045260246000fd5b604051601f8201601f1916810167ffffffffffffffff81118282101715611113576111136110d4565b604052919050565b600080604080848603121561112f57600080fd5b8335925060208085013567ffffffffffffffff8082111561114f57600080fd5b8187019150601f88601f84011261116557600080fd5b823582811115611177576111776110d4565b8060051b6111868682016110ea565b918252848101860191868101908c8411156111a057600080fd5b87870192505b8383101561122d578235868111156111be5760008081fd5b8701603f81018e136111d05760008081fd5b88810135878111156111e4576111e46110d4565b6111f5818801601f19168b016110ea565b8181528f8c83850101111561120a5760008081fd5b818c84018c83013760009181018b019190915283525091870191908701906111a6565b8099505050505050505050509250929050565b6020808252600990820152682737ba1027bbb732b960b91b604082015260600190565b634e487b7160e01b600052603260045260246000fd5b634e487b7160e01b600052601160045260246000fd5b808201808211156112a2576112a2611279565b92915050565b600181811c908216806112bc57607f821691505b602082108103610aa557634e487b7160e01b600052602260045260246000fd5b818103818111156112a2576112a2611279565b601f821115610cb6576000816000526020600020601f850160051c810160208610156113185750805b601f850160051c820191505b8181101561133757828155600101611324565b505050505050565b815167ffffffffffffffff811115611359576113596110d4565b61136d8161136784546112a8565b846112ef565b602080601f8311600181146113a2576000841561138a5750858301515b600019600386901b1c1916600185901b178555611337565b600085815260208120601f198616915b828110156113d1578886015182559484019460019091019084016113b2565b50858210156113ef5787850151600019600388901b60f8161c191681555b5050505050600190811b01905550565b60208152816020820152818360408301376000818301604090810191909152601f909201601f19160101919050565b60006001820161144057611440611279565b5060010190565b60008261146457634e487b7160e01b600052601260045260246000fd5b50049056fea2646970667358221220286f0e0cc2b749075280cbaac712fe5d93e069c7cf2315cee3a8e1c4cf73697164736f6c63430008180033","linkReferences":{}},"methodIdentifiers":{"UserToId(address,uint256)":"e20ae739","UserToPlayed(address,uint256)":"f0dbeafe","UserToWinning(address,uint256)":"40f05107","betAmount()":"d24257c0","getBalance(address)":"f8b2cb4f","getOptions(uint256)":"8915b3fb","getQuestions()":"97221ab7","owner()":"8da5cb5b","placeBet(uint256,uint256)":"4afe62b5","runBet(uint256)":"1438d2c9","setOptions(uint256,string[])":"fb7c72e5","setQuestion(string,uint256)":"b955ccbc","sharkSetAnswer(uint256,uint256)":"838617ff","withdrawFunds()":"24600fc3","withdrawWin(uint256)":"c80b3745"},"id":39}